:100000000C9482000C94C1090C949A090C94AA00D7
:100010000C94AA000C94AA000C94AA000C94AA00B8
:100020000C94AA000C94AA000C94AA000C94AA00A8
:100030000C94AA000C94AA000C94AA000C94AA0098
:100040000C9450090C94AA000C94B1080C948B08E1
:100050000C94AA000C94AA000C94AA000C94AA0078
:100060000C94AA000C94AA000000000800020100F1
:100070000003040700000000000000000102040863
:100080001020408001020408102001020408102002
:1000900000000000230026002900040404040404D6
:1000A000040402020202020203030303030300002A
:1000B000FF00002AD5000055AB00007FAB0000AB6D
:1000C000AB0000D5560000FF00002AD5000055AB5C
:1000D0000000AA560000FF000000D5002A00AB0077
:1000E000550081007F005500AB002B00D5000000BB
:1000F0000000250028002B0000000000240027003D
:100100002A009F1311241FBECFEFD8E0DEBFCDBF62
:1001100011E0A0E0B1E0EEE2FBE202C005900D923A
:10012000AA35B107D9F723E0AAE5B1E001C01D92D5
:10013000A530B207E1F710E0C2E8D0E004C0219793
:10014000FE010E947B15C138D107C9F70E94350A0C
:100150000C9495150C94000080E991E00895219A83
:10016000089580E090E00895FC01858596850895C6
:10017000CF93DF9300D000D000D0CDB7DEB7AB0176
:100180001C821D821E82DC01ED91FC910190F081A8
:10019000E02D19821A821B829E012F5F3F4FBE0104
:1001A0006C5F7F4F099526960FB6F894DEBF0FBEA1
:1001B000CDBFDF91CF9108954F925F926F927F9262
:1001C0008F92AF92BF92CF92EF92FF920F931F93B5
:1001D000CF93DF933C01EB010E941F09F3012785B8
:1001E0003089621B730B6A307105B0F3F894E881B3
:1001F000F98155B1526085B18D7F85B969859E8140
:10020000262F291B922F2E83BF844A805B807C85FA
:10021000FD84EE847F5FF394E3943F814885AA8454
:10022000CB841081D20120E0C32F022F322F3081E6
:10023000112788943111390F08F43FEF9195889474
:1002400070FD130F1795889471FD130F17958894FF
:1002500072FD130F1795889473FD130F17958894EB
:1002600074FD130F1795889475FD130F17958894D7
:1002700076FD130F1795889477FD130F17958894C3
:10028000232F7111212F960F122F002C55B900C06A
:1002900017FF85B931812227889400C000C0002C47
:1002A00085B931113C0F00C0002C55B900C016FFB4
:1002B00085B908F43FEFC195889400C000C0002CB8
:1002C00085B9F0FC230F00C0002C55B900C015FF04
:1002D00085B927958894F1FC230F00C000C0002C3D
:1002E00085B92795889400C0002C55B900C014FF2B
:1002F00085B9F2FC230F2795889400C000C0002C1C
:1003000085B9F3FC230F00C0002C55B900C013FFC2
:1003100085B927958894F4FC230F00C000C0002CF9
:1003200085B92795889400C0002C55B900C012FFEC
:1003300085B9F5FC230F2795889400C000C0002CD8
:1003400085B9F6FC230F00C0002C55B900C011FF81
:1003500085B927958894F7FC230F00C000C0002CB6
:1003600085B92795889400C0002C55B900C010FFAE
:1003700085B9132FF110122FCA0D00C000C0002C38
:1003800085B900C000C0002C55B900C017FF85B961
:1003900032812227889400C000C0002C85B9311119
:1003A000340F00C0002C55B900C016FF85B908F401
:1003B0003FEFEB0DF11D00C000C0002C85B9E0FC43
:1003C000230F00C0002C55B900C015FF85B9279533
:1003D0008894E1FC230F00C000C0002C85B927954C
:1003E000889400C0002C55B900C014FF85B9E2FC08
:1003F000230F2795889400C000C0002C85B9E3FC2A
:10040000230F00C0002C55B900C013FF85B92795F4
:100410008894E4FC230F00C000C0002C85B9279508
:10042000889400C0002C55B900C012FF85B9E5FCC6
:10043000230F2795889400C000C0002C85B9E6FCE6
:10044000230F00C0002C55B900C011FF85B92795B6
:100450008894E7FC230F00C000C0002C85B92795C5
:10046000889400C0002C55B900C010FF85B9132F27
:10047000E110122F419500C000C0002C85B94C0D31
:1004800000C000C055B900C017FF85B930812227D0
:10049000889400C000C0002C85B93111390F00C00C
:1004A000002C55B900C016FF85B908F43FEF9195AF
:1004B000889400C000C0002C85B970FD230F00C0D7
:1004C000002C55B900C015FF85B92795889471FD9A
:1004D000230F00C000C0002C85B92795889400C068
:1004E000002C55B900C014FF85B972FD230F279564
:1004F000889400C000C0002C85B973FD230F00C094
:10050000002C55B900C013FF85B92795889474FD58
:10051000230F00C000C0002C85B92795889400C027
:10052000002C55B900C012FF85B975FD230F279522
:10053000889400C000C0002C85B976FD230F00C050
:10054000002C55B900C011FF85B92795889477FD17
:10055000230F00C000C0002C85B92795889400C0E7
:10056000002C55B900C010FF85B9132F7111122F3F
:10057000960F00C000C0002C85B9119709F086CEF7
:1005800020EE31E0D2010E945515DC01CB01F4E0F0
:10059000B695A79597958795FA95D1F720E030E025
:1005A000A9016AE9469E040C411D569E400D511D4D
:1005B0001124450D511D840F951FA11DB11D893EAC
:1005C00043E09407A105B10508F434C0885E934068
:1005D000A109B10942E0B695A795979587954A95E7
:1005E000D1F747E0849F080E211D949F200D311DF7
:1005F0001124290F311D60915B0170E0860F971F58
:10060000820F931F4091FB025091FC026091FD020A
:100610007091FE02292F3327420F531F611D711D58
:100620004093FB025093FC026093FD027093FE0224
:1006300080935B0178940E941F09F301708B678798
:10064000DF91CF911F910F91FF90EF90CF90BF90CE
:10065000AF908F907F906F905F904F9008950F9321
:100660001F93CF93DF93CDB7DEB762970FB6F894A1
:10067000DEBF0FBECDBF8C01F901DC011C968C9151
:100680007A8369835C834B835E834D8390819D87EE
:1006900091819E8792819F87813029F4CE010196B6
:1006A0000E94E80906C01C861B861A8619861886D1
:1006B0001F8283E0888B1A8A198AD801ED91FC91F8
:1006C0000484F585E02DBE016F5F7F4FC801099559
:1006D00062960FB6F894DEBF0FBECDBFDF91CF910B
:1006E0001F910F9108950F931F93CF93DF93CDB771
:1006F000DEB762970FB6F894DEBF0FBECDBF8C0198
:10070000F901DC011C968C917A8369835C834B83AD
:100710005E834D8390819D8791819E8792819F8783
:10072000813029F4CE0101960E94E80906C01C869A
:100730001B861A86198618861F82188A1A8A198AB1
:10074000D801ED91FC910484F585E02DBE016F5F29
:100750007F4FC801099562960FB6F894DEBF0FBEB1
:10076000CDBFDF91CF911F910F910895FF920F930D
:100770001F93CF93DF9380910C0190910D0104970B
:1007800009F088C00E94440900915C0110915D014C
:1007900020915E0130915F01DC01CB01801B910B48
:1007A000A20BB30B4597A105B10508F473C0709176
:1007B0005A01A0E6B1E0C2E6D1E0F72E80918D01AA
:1007C000AE0141505109882359F0FA019081888186
:1007D0002C91211105C0911103C0882309F443C055
:1007E000272F22952F70672F6F70E22FEE0FE20FE9
:1007F000F0E0E757FD4F308191818281662309F453
:100800002DC02F3011F0339602C0E9E8F2E0629576
:10081000607F062F00952081309F030E30E0311D50
:10082000269F020E20E0211D320F1181292F209FCB
:10083000020E20E0211D169F010E10E0111D922FC7
:10084000910F1281282F209F020E20E0211D169F5C
:10085000010E10E0111D822F810F11243C93FA012B
:10086000908388837D5F13962396F1E0AD38BF07B0
:1008700009F0A4CF81E08F0D80935A010E94ED050D
:100880000E94440960935C0170935D0180935E0156
:1008900090935F01DF91CF911F910F91FF90089589
:1008A000CF93DF9390918D019923D9F0E0E6F1E0A9
:1008B000A2E6B1E0ED012A919C913081311104C092
:1008C000211102C0992319F0808368834C933396D9
:1008D000139691E0ED38F90769F7DF91CF910C9409
:1008E000ED0520E030E0F901E05AFE4F808361839E
:1008F00042832D5F3F4F2D323105A9F7EECFBF92D6
:10090000CF92DF92EF92FF920F931F93CF93DF93DB
:100910006C0100910C0110910D01E0900801B09064
:100920000901F0900A010330110531F4F090B90289
:10093000B090BA02E090BB0281E080938D010E94EA
:10094000440960938E0170938F018093900190937E
:10095000910180910B01893228F494E190930B016D
:100960009093760220910C0130910D01C601820F07
:10097000931FE0E6F1E0A2E6B1E09C01AD01415039
:100980005109121613063CF4F082EA01B882EC9287
:100990002150310904C01082EA0118821C9233965A
:1009A0001396D1E0ED38FD0749F720E030E0181646
:1009B000190674F004301105C9F0DF91CF911F9131
:1009C0000F91FF90EF90DF90CF90BF900C94ED05CA
:1009D000F901E05AFE4FF2A6B3A6E4A60197235010
:1009E0003109263D4FEF340711F7E4CFDF91CF9166
:1009F0001F910F91FF90EF90DF90CF90BF900895DF
:100A000080919701882371F08091960191E0892768
:100A100080939601882321F080E090E00C947F047D
:100A200090939501089560910A0180E090E00E9402
:100A3000DD146091090181E090E00E94DD14609175
:100A4000080182E090E00E94DD1460910B0183E0D8
:100A500090E00E94DD146091050184E090E00E9426
:100A6000DD1460910C0185E090E00E94DD1460913E
:100A700003017091040186E090E00C94EB148091E6
:100A80009701882339F1809196018823B9F08091EC
:100A90000C0190910D0101968530910514F081E0D3
:100AA00090E090930D0180930C010E94130581E06A
:100AB0008093000180E090E00C947F0410929501F7
:100AC00080910B018093920181E0809393011092B9
:100AD00097010895109293011092940181E0809300
:100AE0009501809397010895DC01ED91FD9180813E
:100AF000ED91FD919081ED91FD916C9163708E234C
:100B000009F064609F2309F06860E1E9F5E0E60F11
:100B1000F11D659565956D936D917D918D919D917B
:100B2000099423C01AC012C016C010C01EC009C04C
:100B300014C013C006C019C009C00DC007C00DC045
:100B400014C062507040804090400BC061507040B3
:100B50008040904006C06E5F01C06F5F7F4F8F4F37
:100B60009F4F9E938E937E936E93089580918702FC
:100B7000909188020C947405809185029091860270
:100B80000C947405CF92DF92EF92FF920F931F9314
:100B9000CF93DF936C017A018B01C0E0D0E0CE15DA
:100BA000DF0589F0D8016D918D01D601ED91FC91A1
:100BB0000190F081E02DC6010995892B11F47E0189
:100BC00002C02196ECCFC701DF91CF911F910F9109
:100BD000FF90EF90DF90CF9008953F924F925F92F9
:100BE0006F927F928F929F92AF92BF92CF92DF923D
:100BF000EF92FF920F931F93CF93DF9300D01F923A
:100C0000CDB7DEB7F09076028091790290917A02AA
:100C1000A0917B02B0917C02892B8A2B8B2BE9F06F
:100C20000E941F090091F7021091F8022091F90229
:100C30003091FA02DC01CB01801B910BA20BB30BAC
:100C40000091790210917A0220917B0230917C020E
:100C500080179107A207B307B8F20E941F0960939B
:100C6000F7027093F8028093F9029093FA02E091F0
:100C70008102F0918202309759F040917D025091AB
:100C80007E0260917F02709180028F2D0995F82E6F
:100C90000091D7011091D8014F2C512C612C712C4F
:100CA0000115110509F461C0D8011C96EC901C9740
:100CB00080917702909178028436910510F41C9609
:100CC0001C92D801ED91FC91A280B38019821A8206
:100CD0001B82F11014C0F80145855685628173812D
:100CE0009E012F5F3F4FC801F5010995D8011C9661
:100CF000EC921C9714960D911C911597D1CFF80189
:100D00003996CE0101966C0148019CE0890E911C38
:100D1000DF0113973C902191332001F12223F1F060
:100D2000822F90E0A0E0B0E09C01AD012F5F3F4F2B
:100D30004F4F5F4FC301B2010E94F0149B01AC0101
:100D4000832D90E0A0E0B0E0BC01CD016F5F7F4F4C
:100D50008F4F9F4F0E94F014D6018C93BFEFCB1A98
:100D6000DB0AE815F905A1F6B6CF8091F50290915E
:100D7000F6028C010F5F1F4F1093F6020093F502ED
:100D800049979CF10E9444094B015C0188EE93E075
:100D9000089FB001099F700D189F700D1124072E38
:100DA000000C880B990BC090F102D090F202E090F9
:100DB000F302F090F402A50194012C193D094E09AB
:100DC0005F090E94141530937802209377021092E5
:100DD000F6021092F5020E9444096093F1027093AA
:100DE000F2028093F3029093F4020F900F900F9011
:100DF000DF91CF911F910F91FF90EF90DF90CF90F7
:100E0000BF90AF909F908F907F906F905F904F902A
:100E10003F900895009769F0FC0101900020E9F7E8
:100E20003197AF01481B590BBC0189ED91E00C943F
:100E3000C20580E090E008958F929F92AF92BF929A
:100E40000F931F93CF93DF93CDB7DEB7A1970FB664
:100E5000F894DEBF0FBECDBF19A2423008F44AE0BD
:100E60008E010F5D1F4F842E912CA12CB12CA5015A
:100E700094010E941415E62FB901CA01015011090D
:100E8000EA3014F4E05D01C0E95CD801EC93232B57
:100E9000242B252B61F7C8010E940A07A1960FB6E3
:100EA000F894DEBF0FBECDBFDF91CF911F910F91A0
:100EB000BF90AF909F908F900895CF93DF93682F4E
:100EC00070E080E090E04AE00E941C07EC0186E5BB
:100ED00091E00E940A078C0F9D1FDF91CF9108952A
:100EE000CF92DF92EF92FF92CF93DF936C01990F35
:100EF000EE08FF08F7FE1AC0E091D901F091DA017F
:100F00000190F081E02D6DE289ED91E00995EC0111
:100F100066277727CB016C197D098E099F094AE066
:100F20000E941C077C01EC0EFD1E06C04AE0C701B2
:100F3000B6010E941C077C0186E591E00E940A0729
:100F40008E0D9F1DDF91CF91FF90EF90DF90CF909E
:100F50000895089580E090E00895FC01538D448D3C
:100F6000252F30E0842F90E0821B930B541710F054
:100F7000CF96089501970895FC01918D828D981761
:100F800061F0828DDF01A80FB11D5D968C91928D6D
:100F90009F5F9F73928F90E008958FEF9FEF08956A
:100FA000FC01918D828D981731F0828DE80FF11D33
:100FB000858D90E008958FEF9FEF0895FC01918D4E
:100FC000228D892F90E0805C9F4F821B91098F7347
:100FD0009927089589ED91E00E94DE0721E0892B91
:100FE00009F420E0822F0895FC01848DDF01A80F11
:100FF000B11DA35ABF4F2C91848D90E001968F7341
:101000009927848FA689B7892C93A089B1898C915F
:1010100080648C93938D848D981306C00288F38925
:10102000E02D80818F7D80830895EF92FF920F9352
:101030001F93CF93DF93EC0181E0888F9B8D8C8D84
:10104000981305C0E889F989808185FD24C0F62EB2
:101050000B8D10E00F5F1F4F0F731127E02E8C8D4B
:10106000E8120CC00FB607FCFACFE889F989808135
:1010700085FFF5CFCE010E94F407F1CF8B8DFE01E5
:10108000E80FF11DE35AFF4FF0820B8FEA89FB89CD
:101090008081806207C0EE89FF896083E889F989D1
:1010A00080818064808381E090E0DF91CF911F9107
:1010B0000F91FF90EF900895CF93DF93EC01888D0F
:1010C0008823C9F0EA89FB89808185FD05C0A8894C
:1010D000B9898C9186FD0FC00FB607FCF5CF8081D2
:1010E00085FFF2CFA889B9898C9185FFEDCFCE011C
:1010F0000E94F407E7CFDF91CF91089580E090E060
:10110000892B29F00E94EA0781110C9400000895B0
:1011100008950E9490151F920F920FB60F921124FE
:101120002F933F934F935F936F937F938F939F93EF
:10113000AF93BF93EF93FF9389ED91E00E94F40783
:10114000FF91EF91BF91AF919F918F917F916F919F
:101150005F914F913F912F910F900FBE0F901F9075
:1011600018951F920F920FB60F9211242F938F9301
:101170009F93EF93FF93E091E901F091EA01808161
:10118000E091EF01F091F00182FD12C09081809119
:10119000F2018F5F8F732091F301821751F0E0917C
:1011A000F201F0E0E752FE4F958F8093F20101C00B
:1011B0008081FF91EF919F918F912F910F900FBEA2
:1011C0000F901F901895CF93DF9390E0FC01E458A7
:1011D000FF4F2491FC01E656FF4F8491882361F173
:1011E00090E0880F991FFC01E850FF4FC591D49102
:1011F000FC01E251FF4FA591B491611109C09FB765
:10120000F8948881209582238883EC912E230BC04B
:10121000623061F49FB7F8943881822F80958323E0
:101220008883EC912E2B2C939FBF06C08FB7F89428
:10123000E8812E2B28838FBFDF91CF9108953FB790
:10124000F8948091010390910203A0910303B0915F
:10125000040326B5A89B05C02F3F19F00196A11DD8
:10126000B11D3FBFBA2FA92F982F8827820F911D3C
:10127000A11DB11DBC01CD0142E0660F771F881F83
:10128000991F4A95D1F708952FB7F8946091FB0202
:101290007091FC028091FD029091FE022FBF089593
:1012A0001F920F920FB60F9211242F933F938F939B
:1012B0009F93AF93BF938091FB029091FC02A0910A
:1012C000FD02B091FE023091000323E0230F2D3781
:1012D00020F40196A11DB11D05C026E8230F02963A
:1012E000A11DB11D209300038093FB029093FC028B
:1012F000A093FD02B093FE0280910103909102033E
:10130000A0910303B09104030196A11DB11D809328
:10131000010390930203A0930303B0930403BF91CE
:10132000AF919F918F913F912F910F900FBE0F9092
:101330001F9018951F920F920FB60F9211242F93A2
:101340003F934F935F936F937F938F939F93AF934D
:10135000BF93EF93FF93E0911001F0911101099574
:10136000FF91EF91BF91AF919F918F917F916F917D
:101370005F914F913F912F910F900FBE0F901F9053
:1013800018951F920F920FB60F9211242F933F932F
:101390004F935F936F937F938F939F93AF93BF937D
:1013A000EF93FF93E0910E01F0910F010995FF91EA
:1013B000EF91BF91AF919F918F917F916F915F91CD
:1013C0004F913F912F910F900FBE0F901F90189546
:1013D000EF92FF920F931F93CF93DF93EC019091C5
:1013E000FF029F5F292F27702093FF0290FF02C00A
:1013F00090E801C090E021FD9064247009F09062B3
:1014000020E1290FFE013C967E018FE0E80EF11CE1
:1014100000E011E06191662331F070E0C8010E94A4
:1014200000156F5F01C060E0DF0114976C93322FED
:10143000369F030E30E0311D1124CF010797311183
:1014400003C0EC01188203C03150EC0138836623DD
:1014500011F061506C93EE15FF05E1F6DF91CF912D
:101460001F910F91FF90EF900895789484B582605A
:1014700084BD84B5816084BD85B5826085BD85B538
:10148000816085BD80916E00816080936E001092B6
:101490008100809181008260809381008091810031
:1014A00081608093810080918000816080938000C2
:1014B0008091B10084608093B1008091B000816020
:1014C0008093B00080917A00846080937A0080914C
:1014D0007A00826080937A0080917A0081608093A4
:1014E0007A0080917A00806880937A001092C1001F
:1014F000E091E901F091EA0182E08083E091E50169
:10150000F091E6011082E091E701F091E8018FECA3
:1015100080831092F101E091ED01F091EE0186E0FF
:101520008083E091EB01F091EC0180818061808308
:10153000E091EB01F091EC01808188608083E09183
:10154000EB01F091EC01808180688083E091EB01F8
:10155000F091EC0180818F7D808362E082E00E94C7
:10156000E30880E095E09093D4028093D3028FE368
:1015700095E09093CE028093CD0261E089E00E94D5
:10158000E3088091AB01811145C010929D0110923A
:101590009C018FEF8093A0018093A1018093A20111
:1015A0008093A3018093A4018093A50181E080939F
:1015B000A6011092A8011092A70110929F0110920B
:1015C0009E018091D7019091D801892B31F48AE94D
:1015D00091E09093D8018093D701E0919801F09128
:1015E0009901309721F08AE991E0958384838AE913
:1015F00091E090939901809398011092AA01109222
:10160000A90186E291E090939B0180939A0181E089
:101610008093AB01E0919A01F0919B010480F581E8
:10162000E02D8AE991E0099580E691E090939D0193
:1016300080939C018FE090E09093A8018093A70194
:10164000E0919A01F0919B010284F385E02D8AE9F3
:1016500091E00995009729F19C0140E050E060E499
:1016600072E48FE090E00E943615722F632F009194
:10167000790210917A0220917B0230917C02872FAF
:10168000962FDA0180179107A207B30710F4D9014A
:10169000C8018093790290937A02A0937B02B09361
:1016A0007C0280E090E00E94CF14C82F80930A0152
:1016B00081E090E00E94CF14082F8093090182E01E
:1016C00090E00E94CF14182F8093080183E090E0EF
:1016D0000E94CF1480930B0184E090E00E94CF140D
:1016E000D82F86E090E00E94D71490930401809355
:1016F00003012D2F30E0309306012093050185E092
:1017000090E00E94CF14D82F90E090930D01809329
:101710000C01CF3F41F40F3F31F41F3F21F481E032
:101720008093070102C0109207018C2F0E945D0771
:10173000809109010E945D07809108010E945D0768
:1017400080910501909106010E94700780910B0124
:101750000E945D078091070190E00E9470078091D0
:101760000301909104010E9470078D2F0E945D0774
:1017700010927602409108016091090180910A015E
:101780000E9450040E94440960938E0170938F015F
:1017900080939001909391010E9444096093B3015A
:1017A0007093B4018093B5019093B6010E944409EF
:1017B0006093BE017093BF018093C0019093C101FB
:1017C0000E9444096093C2017093C3018093C401D5
:1017D0009093C50180910301909104019093C701FA
:1017E0008093C6010E94440960935C0170935D017F
:1017F00080935E0190935F0160910B0170E080E245
:1018000093E00E9400157093C9016093C80101E044
:1018100010E08824839445E0E42EF12CC2E0D0E06F
:1018200053E0652E712C66E0C62ED12C99249A9433
:101830008091BC029091BD029927FC01E859FF4FAD
:101840003491FC01E458FF4F2491FC01E656FF4F10
:10185000E491EE23C9F1332339F1333091F038F4B8
:101860003130A9F0323001F594B59F7D12C0373088
:1018700091F03830A1F03430B9F4809180008F7D40
:1018800003C0809180008F77809380000DC094B555
:101890009F7794BD09C09091B0009F7703C090914D
:1018A000B0009F7D9093B000F0E0EE0FFF1FE05777
:1018B000FF4FA591B491EC912E2391E080E009F4C3
:1018C00090E0A92EB82E02C0A12CB12C0E94440990
:1018D0002091DB023091DC022115310569F4209161
:1018E000CA023091CB02A216B30609F01EC21093B1
:1018F000DC020093DB0256C12130310509F068C0DB
:101900002091C8023091C902A216B30609F52091B0
:10191000DD023091DE024091DF025091E0021B01B6
:101920002C01221A330A440A550A2091BE02309132
:10193000BF02032E000C440B550B2216330644063F
:10194000550608F488C1D093DC02C093DB02CBC0FB
:101950002091CA023091CB02A216B30609F0E5C16C
:101960002091DD023091DE024091DF025091E002D1
:101970001B012C01221A330A440A550A8091C20223
:101980009091C302092E000CAA0BBB0B8215930584
:10199000A405B50508F0C9C18092CC02E091D1023E
:1019A000F091D202309709F00995E091D302F091BD
:1019B000D402309709F00995E091D702F091D8024E
:1019C000309709F00995D092DC02C092DB02ADC1DC
:1019D0002230310509F055C02091CF023091D0025C
:1019E000232B31F42091D9023091DA02232BD9F044
:1019F0002091DD023091DE024091DF025091E00241
:101A00001B012C01221A330A440A550A2091C002F4
:101A10003091C102032E000C440B550B22153305E7
:101A20004405550528F4E091CD02F091CE0270C135
:101A30002091CA023091CB02A216B30609F075C1FB
:101A40002091E1023091E2024091E3025091E402E0
:101A50001B012C01221A330A440A550A2091BE02A6
:101A60003091BF02032E000C440B550B2215330599
:101A70004405550508F059C17092DC026092DB0202
:101A800091C023303105C1F52091C8023091C902BF
:101A9000A216B30609F049C12091DD023091DE02A1
:101AA0004091DF025091E0021B012C01221A330AFF
:101AB000440A550A2091BE023091BF02032E000C49
:101AC000440B550B221633064406550628F4D093D2
:101AD000DC02C093DB0229C124E0422E512C50923B
:101AE000DC024092DB026093E1027093E202809399
:101AF000E3029093E40219C12430310509F05BC080
:101B00002091D9023091DA02232BD9F02091DD0205
:101B10003091DE024091DF025091E0021B012C0166
:101B2000221A330A440A550A2091C0023091C10298
:101B3000032E000C440B550B2215330544055505A7
:101B400028F4E091CF02F091D002E2C02091CA02C5
:101B50003091CB02A216B30609F0E7C02091E10252
:101B60003091E2024091E3025091E4021B012C010A
:101B7000221A330A440A550A2091BE023091BF024C
:101B8000032E000C440B550B221533054405550557
:101B900008F0CBC0D093C502C093C402F092DC021F
:101BA000E092DB026093DD027093DE028093DF023D
:101BB0009093E002BAC02530310509F051C0209160
:101BC000C8023091C902A216B30609F0AEC0209136
:101BD000DD023091DE024091DF025091E0021B01F4
:101BE0002C01221A330A440A550A2091BE02309170
:101BF000BF02032E000C440B550B22153305440580
:101C0000550508F092C02091C4023091C5022F5FA3
:101C10003F4F3093C5022093C40247E050E05093F9
:101C2000DC024093DB026093E1027093E202809356
:101C3000E3029093E4028091C6029091C7022817B4
:101C400039070CF472C0E091D902F091DA023097B2
:101C500009F46BC009951092DC021092DB0265C09A
:101C60002730310509F044C02091D9023091DA02C1
:101C7000232B89F32091DD023091DE024091DF02B7
:101C80005091E0021B012C01221A330A440A550A22
:101C90002091C0023091C102032E000C440B550B61
:101CA0002215330544055505B0F22091CA02309142
:101CB000CB02A216B306C9F52091E1023091E202EF
:101CC0004091E3025091E4021B012C01221A330AD5
:101CD000440A550A2091BE023091BF02032E000C27
:101CE000440B550B2215330544055505F0F456CF2A
:101CF00026303105D1F48091C8029091C902A8160E
:101D0000B90651F41092CC02E091D502F091D602BE
:101D1000309709F09FCF9FCF8092CC02E091D702FD
:101D2000F091D802309709F009958091000188233D
:101D300071F00E94440960938E0170938F0180932B
:101D40009001909391011092B9011092000180913D
:101D50008D018823D1F08091B901811116C00E94B4
:101D6000440920918E0130918F0140919001509152
:101D70009101DC01CB01821B930BA40BB50B853FBA
:101D80009140A105B10508F0BDC48091B901882337
:101D900049F10E9444092091B3013091B40140916E
:101DA000B5015091B601DC01CB01821B930BA40B52
:101DB000B50B8C349105A105B105A0F08091B70158
:101DC0009091B801893091050CF4A3C410928D0153
:101DD0001092B901409108016091090180910A01B6
:101DE0000E94500480919501882309F441C00E940B
:101DF00044092091BE013091BF014091C001509132
:101E0000C1011B012C01221A330A440A550A809190
:101E1000C8019091C901092E000CAA0BBB0B8215B9
:101E20009305A405B50520F5809194018F5F8093FB
:101E3000940190910B01981728F0809376020E94EC
:101E4000ED0504C0109294011092950180919401C7
:101E50008F3F21F410929401109295010E94440941
:101E60006093BE017093BF018093C0019093C10144
:101E7000809193018823D1F10E9444092091BA01F5
:101E80003091BB014091BC015091BD011B012C015F
:101E9000221A330A440A550A8091C8019091C90157
:101EA000092E000CAA0BBB0B82159305A405B505E2
:101EB000E8F48091920181508093920190910B01FE
:101EC000981720F0809376020E94ED058091920190
:101ED000811102C0109293010E9444096093BA01DB
:101EE0007093BB018093BC019093BD018091D3019D
:101EF0009091D401A091D501B091D6018093CF01EA
:101F00009093D001A093D101B093D2018091F002BF
:101F1000823030F4F89485EE92E00E94740501C09E
:101F2000F8948091EC029091ED02A091EE02B091B4
:101F3000EF0278948093D3019093D401A093D501BC
:101F4000B093D6014091CF015091D0016091D10161
:101F50007091D20184179507A607B70764F48091A2
:101F6000CB019091CC01A091CD01B091CE01019710
:101F7000A109B10910C0481759076A077B079CF4EB
:101F80008091CB019091CC01A091CD01B091CE0177
:101F90000196A11DB11D8093CB019093CC01A0931C
:101FA000CD01B093CE0180919701882309F4B9C087
:101FB00080910C0190910D01039709F0B0C00E942F
:101FC00044092091C2013091C3014091C401509154
:101FD000C5011B012C01221A330A440A550A8091BB
:101FE000030190910401092E000CAA0BBB0B821572
:101FF0009305A405B50508F092C08091B9026091DF
:10200000BA024091BB0220910101309102012430BB
:10201000310569F4262F30E0263F31051CF4665F58
:102020006F3F29F410930201009301016FEF20919B
:102030000101309102012130310561F4282F30E097
:102040002A30310514F08A5029F4D0920201C0924E
:10205000010180E02091010130910201263031051B
:1020600069F4242F30E0263F31051CF4465F4F3FD2
:1020700029F470920201609201014FEF2091010159
:10208000309102012330310561F4262F30E02A30EF
:10209000310514F06A5029F4D0930201C093010174
:1020A00060E020910101309102012230310569F494
:1020B000282F30E0263F31051CF4865F8F3F29F43E
:1020C000F0920201E09201018FEF20910101309125
:1020D00002012530310589F4242F30E02A30310502
:1020E00014F04A5051F494E0492E512C50920201C0
:1020F000409201018092070140E08093B902609311
:10210000BA024093BB020E9450040E9444096093AB
:10211000C2017093C3018093C4019093C5010E94D2
:10212000B60380919701882309F4E9C28091960152
:10213000882309F4E4C280910C0190910D01823052
:10214000910509F488C01CF4019759F0D8C2833076
:10215000910509F469C2049709F0D1C20E94B6033F
:10216000CEC28091CB019091CC01A091CD01B091D4
:10217000CE010497A105B105A4F01092CB011092F5
:10218000CC011092CD011092CE018092CA018091B3
:102190000B01853F20F4865F80930B0102C0909273
:1021A0000B018091CB019091CC01A091CD01B09118
:1021B000CE018D3F9F4FAF4FBF4FA4F41092CB0184
:1021C0001092CC011092CD011092CE018092CA01E2
:1021D00080910B018B3020F08A5080930B0102C05C
:1021E00010920B018091CA01882309F488C2609182
:1021F0000B01683298F470E080E293E00E940015D1
:102200007093C9016093C801109276020E94ED0597
:102210000E94130586E491E00E940A0720910B01B9
:102220002832A0F0622F70E080E293E00E94001557
:102230007093C9016093C801209376020E94ED0556
:102240000E9413058EE491E00E940A0780910B0121
:102250000E945D0752C28091CB019091CC01A09168
:10226000CD01B091CE010497A105B1050CF4CCC00D
:102270001092CB011092CC011092CD011092CE01A0
:102280008092CA0180910701882349F090920A0147
:10229000109209011092080110920701B5C08091B7
:1022A0000501909106010497A9F420910901822F5C
:1022B00090E08C3E91051CF09092090103C02C5EC9
:1022C00020930901809109018F3F21F410930601A9
:1022D0000093050180910501909106010197A1F4F9
:1022E00020910A01822F90E044971CF410920A0179
:1022F00003C0245120930A0180910A01811104C076
:10230000D0920601C09205018091050190910601CD
:102310000697A9F420910801822F90E08C3E910548
:102320001CF09092080103C02C5E2093080180915C
:1023300008018F3F21F4709206016092050180919F
:102340000501909106010397A1F420910901822FC4
:1023500090E044971CF41092090103C0245120938B
:10236000090180910901811104C0D0930601C09335
:10237000050180910501909106010297A9F4209131
:102380000A01822F90E08C3E91051CF090920A0188
:1023900003C02C5E20930A0180910A018F3F21F433
:1023A000F0920601E09205018091050190910601ED
:1023B0000597B1F420910801822F90E044971CF416
:1023C0001092080103C02451209308018091080154
:1023D000811106C01092060110920501809207013A
:1023E0008091050190910601892B71F490920A0168
:1023F000909209019092080144E050E05093060148
:1024000040930501809207018091CB019091CC010E
:10241000A091CD01B091CE018D3F9F4FAF4FBF4FE7
:102420000CF0CAC01092CB011092CC011092CD01D9
:102430001092CE018092CA0180910701882349F051
:1024400090920A011092090110920801109207015E
:10245000B3C080910501909106010597A9F42091E0
:102460000801822F90E08C3E91051CF090920801AB
:1024700003C02C5E20930801809108018F3F21F456
:10248000D0930601C093050180910501909106014A
:102490000697A1F420910801822F90E044971CF444
:1024A0001092080103C02451209308018091080173
:1024B000811104C01093060100930501809105016C
:1024C000909106010197B9F420910A01822F90E0C2
:1024D0008C3E91051CF090920A0103C02C5E209363
:1024E0000A0180910A018F3F31F484E090E09093DB
:1024F00006018093050180910501909106010497E2
:10250000A1F420910901822F90E044971CF41092CD
:10251000090103C02451209309018091090181110F
:1025200004C010920601109205018091050190915E
:1025300006010297A1F420910A01822F90E04497AE
:102540001CF410920A0103C0245120930A018091C7
:102550000A01811104C07092060160920501809108
:102560000501909106010397A9F420910901822F9A
:1025700090E08C3E91051CF09092090103C02C5E06
:1025800020930901809109018F3F21F4D092060127
:10259000C09205018091050190910601892B61F49B
:1025A00090920A019092090190920801F09206011E
:1025B000E0920501809207018091CA01882309F405
:1025C0009EC060910A0170E080E090E04AE00E94C5
:1025D0001C0784E591E00E940A076091090170E000
:1025E00080E090E04AE00E941C0784E591E00E94B0
:1025F0000A076091080170E080E090E04AE00E94E4
:102600001C0784E591E00E940A0786E591E00E949C
:102610000A070E9413054091080160910901809109
:102620000A010E94500469C08091CB019091CC01B5
:10263000A091CD01B091CE010497A105B1050CF197
:102640001092CB011092CC011092CD011092CE01CC
:102650008092CA018091030190910401C99754F4BA
:102660008091C6019091C70103969093C701809312
:10267000C60107C08CE3282E312C3092C70120926E
:10268000C6018091CB019091CC01A091CD01B09178
:10269000CE018D3F9F4FAF4FBF4FDCF41092CB0167
:1026A0001092CC011092CD011092CE018092CA01FD
:1026B0008091C6019091C7018230910534F0039753
:1026C0009093C7018093C60104C01093C701009383
:1026D000C6018091CA01882391F0809103019091F5
:1026E00004010E9470070E9413058091C601909119
:1026F000C70190930401809303011092CA010E94C4
:102700007E0896C88092B9011092B8011092B70164
:102710003CCB0E947F048091B7019091B801019653
:102720009093B8018093B7010E9444096093B3016C
:102730007093B4018093B5019093B60153CBCF93BE
:10274000DF931092DC011092DB0188EE93E0A0E0B1
:10275000B0E08093DD019093DE01A093DF01B093A0
:10276000E00188E391E09093DA018093D90185EC50
:1027700090E09093E6018093E50184EC90E09093E3
:10278000E8018093E70180EC90E09093EA01809368
:10279000E90181EC90E09093EC018093EB0182ECF5
:1027A00090E09093EE018093ED0186EC90E09093A1
:1027B000F0018093EF011092F2011092F301109258
:1027C000F4011092F5018FEF809376021092780257
:1027D0001092770210928202109281028FEF9FEF87
:1027E000DC0180937D0290937E02A0937F02B093E0
:1027F000800284E690E0909384028093830262E0FA
:1028000083E00E94E30862E084E00E94E308EDE9CF
:10281000F0E0E491F0E0EE0FFF1FE057FF4FA591CD
:10282000B491B093E602A093E502EFE7F0E0849163
:102830008093E902EEE9F0E0E491F0E0EE0FFF1F93
:10284000E057FF4FC591D491D093E802C093E702BF
:10285000E0E8F0E0E491E093EA021092EC021092DA
:10286000ED021092EE021092EF02EBE3FFE13197DE
:10287000F1F7EC91E82381E009F480E02881909160
:10288000EA02922309F082608093EB0285EE92E0E7
:10289000909388028093870286EB95E090931101D4
:1028A0008093100180916900837F84608093690028
:1028B000E99A81E08093F00282E090E09093BD027B
:1028C0008093BC0282E390E09093BF028093BE02AB
:1028D00088E592E09093C1028093C00288EE93E075
:1028E0009093C3028093C2021092DC021092DB022A
:1028F0001092CC0281E090E09093C9028093C802CC
:102900001092CB021092CA0262E082E00E94E308B9
:102910001092CE021092CD021092D0021092CF02ED
:102920001092D2021092D1021092D4021092D302CD
:102930001092D6021092D5021092D8021092D702AD
:102940008FEF8093B9021092BA021092BB022EEA66
:1029500030E080E090E0F9014591559165917491E6
:10296000FC01E757FD4F6083518342832C5F3F4F4B
:1029700003968033910579F7DF91CF910895DC01BB
:10298000CB01FC01F999FECF06C0F2BDE1BDF89A7A
:10299000319600B40D9241505040B8F70895F9991E
:1029A000FECF92BD81BDF89A992780B50895A8E120
:1029B000B0E042E050E00C94C114262FF999FECF0C
:1029C0001FBA92BD81BD20BD0FB6F894FA9AF99A4C
:1029D0000FBE019608950E94DD14272F0C94DE147B
:1029E000DB018F939F930E945C15BF91AF91A29FD3
:1029F000800D911DA39F900DB29F900D11240895FD
:102A000097FB072E16F4009407D077FD09D00E949B
:102A1000671507FC05D03EF4909581959F4F08956A
:102A2000709561957F4F0895A1E21A2EAA1BBB1BDA
:102A3000FD010DC0AA1FBB1FEE1FFF1FA217B3078A
:102A4000E407F50720F0A21BB30BE40BF50B661FA0
:102A5000771F881F991F1A9469F760957095809564
:102A600090959B01AC01BD01CF010895052E97FB08
:102A70001EF400940E944D1557FD07D00E941415B6
:102A800007FC03D04EF40C944D15509540953095AD
:102A900021953F4F4F4F5F4F0895909580957095CA
:102AA00061957F4F8F4F9F4F08950E948115B7FF0B
:102AB0000895821B930B08950E948115A59F900D88
:102AC000B49F900DA49F800D911D11240895AA1B01
:102AD000BB1B51E107C0AA1FBB1FA617B70710F009
:102AE000A61BB70B881F991F5A95A9F7809590953B
:102AF000BC01CD010895EE0FFF1F0590F491E02D6C
:102B00000994A29FB001B39FC001A39F700D811DC6
:102B10001124911DB29F700D811D1124911D0895E6
:0E2B200081E090E0F8940C949515F894FFCFA6
:102B2E000104003C00040001FFFFFF1401008808AF
:102B3E00880800000000890889088908B800B400D8
:102B4E00B1000000000073032F03AF00B800B40003
:102B5E00AC00DC00000000001508C205AD075C08E3
:102B6E00DE07BC07D0075B425D5B305D20005B4239
:0A2B7E005D5B2A5D20000D0A0000D7
:00000001FF
